:100000000C942A000C943C000C943C000C943C0092
:100010000C943C000C943C000C943C000C943C0070
:100020000C943C000C943C000C948D000C943C000F
:100030000C943C000C943C000C943C000C943C0050
:100040000C943C000C943C000C943C000C943C0040
:100050000C943C0011241FBECFE5D8E0DEBFCDBF1D
:1000600020E0A0E6B0E001C01D92A636B207E1F79D
:100070000E945E010C947C010C940000CF93DF93EE
:100080001F92CDB7DEB719820AC08981882F90E010
:100090008F599F4FFC01108289818F5F89838981ED
:1000A000843098F300000F90DF91CF910895CF93A3
:1000B000DF931F92CDB7DEB789838981882F90E0C7
:1000C0008F599F4F21E0FC01208300000F90DF91AA
:1000D000CF910895CF93DF931F92CDB7DEB7898379
:1000E0008981882F90E08F599F4FFC01108200007A
:1000F0000F90DF91CF910895CF93DF931F92CDB7EB
:10010000DEB789838981882F90E08F599F4FFC014A
:1001100080810F90DF91CF9108951F920F920090F0
:100120005F000F9211242F933F934F935F936F9330
:100130007F938F939F93AF93BF93EF93FF93CF934F
:10014000DF9300D0CDB7DEB783E590E023E530E064
:10015000F9012081287FFC01208310926000198220
:100160003DC086E390E0FC018081806F482F89814B
:10017000282F30E080E190E002C0880F991F2A9577
:10018000E2F784278A8388E390E02A81FC012083B8
:10019000000086E390E0FC0180818A838A81882FB9
:1001A00090E081709927892B99F489810E947C00C5
:1001B000982F81E08927882371F089810E94570058
:1001C0008BE390E02A8122952F70FC01208303C0ED
:1001D00089810E946A0089818F5F89838981843047
:1001E00008F4BFCF00000F900F90DF91CF91FF91E7
:1001F000EF91BF91AF919F918F917F916F915F919F
:100200004F913F912F910F9000925F000F901F90A0
:100210001895CF93DF93CDB7DEB788E390E02FEF4B
:10022000FC012083000088E390E028E330E0F9013E
:1002300020812F70FC012083000086E390E0FC0108
:100240008081882F90E081709927892B39F00E9456
:100250003E008BE390E0FC0110820DC083E590E04E
:1002600023E530E0F9012081287F2560FC0120830F
:1002700081E080936000DF91CF910895CF93DF9369
:10028000CDB7DEB78CE590E021E0FC01208383E56B
:1002900090E023E530E0F9012081277B2860FC0114
:1002A000208389E590E029E530E0F9012081226092
:1002B000FC0120830000DF91CF910895CF93DF935D
:1002C000CDB7DEB787E390E020EFFC0120838AE31F
:1002D00090E02FEFFC0120838BE390E0FC01108283
:1002E0000E943E0178949091600081E089278823E4
:0C02F000D1F30E940901F7CFF894FFCF72
:00000001FF
