:100000000C942A000C9451000C943C000C943C007D
:100010000C943C000C943C000C943C000C943C0070
:100020000C943C000C943C000C943C000C943C0060
:100030000C943C000C943C000C943C000C943C0050
:100040000C943C000C943C000C943C000C943C0040
:100050000C943C0011241FBECFE5D8E0DEBFCDBF1D
:1000600020E0A0E6B0E001C01D92A636B207E1F79D
:100070000E948F000C94A1000C940000E82FF0E087
:10008000EE59FF4F81E080830895E82FF0E0EE59AC
:10009000FF4F10820895E82FF0E0EE59FF4F808166
:1000A00008951F920F920FB60F9211242F933F9332
:1000B0004F935F936F938F939F93EF93FF9380E0A2
:1000C00040E150E061E020B3E82FF0E0922F9F7014
:1000D0009A01082E01C0220F0A94EAF7292B22BBAD
:1000E0000000EE59FF4F829B08C09081911107C01C
:1000F000608391E0980F9BBB02C010828F5F8430B9
:1001000010F3FF91EF919F918F916F915F914F91BC
:100110003F912F910F900FBE0F901F90189581B3B4
:10012000806F81BB8A9882B3806F82BB8FEF8ABB5E
:100130001BBA85B7836085BF8BB780648BBF78940B
:06014000FFCFF894FFCF91
:00000001FF
