:100000000C942A000C943C000C943C000C943C0092
:100010000C943C000C943C000C943C000C943C0070
:100020000C943C000C943C000C9470000C943C002C
:100030000C943C000C943C000C943C000C943C0050
:100040000C943C000C943C000C943C000C943C0040
:100050000C943C0011241FBECFE5D8E0DEBFCDBF1D
:1000600020E0A0E6B0E001C01D92A237B207E1F7A0
:100070000E941D010C942A010C94000080E090E085
:10008000FC01EF59FF4F2081211106C001968031FC
:100090009105B1F781E0089580E0089570E094E063
:1000A000899F600D711D1124FB01EF59FF4F81E005
:1000B0008083089570E094E0899F600D711D112484
:1000C000FB01EF59FF4F1082089570E094E0899F83
:1000D000600D711D1124FB01EF59FF4F80810895C0
:1000E0001F920F920FB60F9211242F933F934F93AD
:1000F0005F936F937F938F939F93AF93BF93EF9390
:10010000FF9388B38F7088BB80916000843030F09B
:100110000E943E0081111BBA1092600086B330919C
:100120006000282F2F7080E190E001C0880F3A9581
:10013000EAF7822B88BB000086B31092710021E0A1
:1001400030E090E061E040917100443008F051C02F
:100150004091710070917100F90102C0EE0FFF1F14
:100160004A95E2F7AF0148235923F90102C0EE0F87
:10017000FF1F7A95E2F74E175F0741F5E091710096
:1001800040916000F0E054E0459FE00DF11D112426
:10019000EF59FF4F4081411126C0E091710040911D
:1001A0006000F0E074E0479FE00DF11D1124EF596D
:1001B000FF4F608340916000E4E04E9FA001112456
:1001C000406850917100452B4BBB0DC0E091710010
:1001D00040916000F0E054E0459FE00DF11D1124D6
:1001E000EF59FF4F1082409171004F5F40937100B3
:1001F000AACF809160008F5F80936000FF91EF91A4
:10020000BF91AF919F918F917F916F915F914F912E
:100210003F912F910F900FBE0F901F90189581E086
:100220008CBF83B7877B886083BF89B7826089BFB3
:1002300083B7887F856083BF089587B3806F87BB4E
:1002400087B3807F87BB8FEF8ABB1BBA0E940F01E9
:080250007894FFCFF894FFCF72
:00000001FF
