:020000020000FC
:100000000C9404000C94260008E00EBF0FE50DBF11
:100010000BE007BD02E706BD07E00BBD02EA0ABD23
:100020008D9A78940FB5026C0E7F0FBD0EB50861E6
:100030000EBD0EB50D7F05600EBD05B702600E7FCB
:1000400005BF0BB700640BBF0C946E00F8946F9360
:100050005F934F933F932F931F930F930FB70F937C
:100060000AB51BB541E6040F08F002C041E0140FC9
:10007000502F612F0095109541E0040F08F002C049
:1000800041E0140F26B537B5020F08F002C041E079
:10009000140F130F19F44FE9040FB2F00EB5087FD7
:1000A0000EBD0FB50C7F0FBD0EB5077E0EBD6BBD2F
:1000B0005ABD0FB502600E7F0FBD0EB508610EBDB3
:1000C0000EB50D7F05600EBD0F910FBF0F911F91F3
:1000D0002F913F914F915F916F9118950E9426004B
:0200E000FDCF52
:00000001FF
