:100000000C942A000C943E000C943C000C943C0090
:100010000C943C000C943C000C943C000C943C0070
:100020000C943C000C943C000C943C000C943C0060
:100030000C943C000C943C000C943C000C943C0050
:100040000C943C000C943C000C943C000C943C0040
:100050000C943C0011241FBECFE5D8E0DEBFCDBF1D
:1000600020E0A0E6B0E001C01D92A436B207E1F79F
:100070000E9488000C9494000C9400001F920F9230
:100080000FB60F9211242F933F934F935F936F936B
:100090007F938F939F93AF93EF93FF9380E060E103
:1000A00070E0A1E020B3482F50E0922F9F709B0199
:1000B000082E02C0220F331F0A94E2F7292B22BB1D
:1000C0000000829B0EC0FA01E05AFF4F908191110F
:1000D0000DC0FA01E05AFF4FA08391E0980F9BBB3F
:1000E00005C0FA01E05AFF4F10828F5F8430D0F2D2
:1000F000FF91EF91AF919F918F917F916F915F9160
:100100004F913F912F910F900FBE0F901F90189518
:1001100081B3806F81BB88988FEF8ABB1BBA8BB786
:0C01200080648BBF7894FFCFF894FFCF71
:00000001FF
