S00E00006377362D7A332E737265632C
S11300000C942A000C943C000C943C000C943C008E
S11300100C943C000C943C000C943C000C943C006C
S11300200C943C000C943C000C9472000C943C0026
S11300300C943C000C943C000C943C000C943C004C
S11300400C943C000C943C000C943C000C943C003C
S11300500C943C0011241FBECFE5D8E0DEBFCDBF19
S113006020E0A0E6B0E001C01D92A236B207E1F79D
S11300700E944C000C94B1000C940000C89B04C076
S11300801092610018BA089583B7887F856083BF92
S113009081E08093600008958AB38E7F806F8ABB6D
S11300A08BB3816F8BBB8FEF87BB789485E08CBF5C
S11300B083B7877B886083BF89B7826089BF80915B
S11300C0610081110AC0809160008111F8CF0E9403
S11300D03E0080916100882391F3C89BF0CF109279
S11300E06100EDCF1F920F920FB60F9211242F9340
S11300F03F934F936F937F938F939F93F89480E0F4
S113010090E060E170E02BB3422F406F9B01082E1A
S113011002C0220F331F0A94E2F724272BBB0000EE
S1130120C89903C0282F206828BB01968430910504
S113013051F781E0809361008BB3806F8BBB83B7F1
S1130140887F83BF1092600018959F918F917F9153
S11301506F914F913F912F910F900FBE0F901F9071
S10901601895F894FFCF8E
S9030000FC
