S00E00006377372D7A312E737265632D
S11300000C942A000C943C000C943C000C943C008E
S11300100C943C000C943C000C943C000C943C006C
S11300200C943C000C943C000C9449000C943C004F
S11300300C943C000C943C000C943C000C943C004C
S11300400C943C000C943C000C943C000C943C003C
S11300500C943C0011241FBECFE5D8E0DEBFCDBF19
S113006020E0A0E6B0E001C01D92A636B207E1F799
S11300700E94D2000C94E3000C94000080E090E015
S1130080FC01EF59FF4F1082019680319105C1F7B1
S113009008951F920F920FB60F9211242F933F933E
S11300A04F935F936F937F938F939F93AF93BF937C
S11300B0EF93FF9383B7887F83BF1092650061E05D
S11300C080E0E0E1F0E071E002C08F5F6F5F26B393
S11300D0482F50E0922F906F9F01082E02C0220FEC
S11300E0331F0A94E2F7292728BB0000B09924C0E3
S11300F0DA01AF59BF4F9C91911122C0DA01AF5977
S1130100BF4F7C93811109C0909160009F5F9093D1
S11301106000909160009BBBD8CF833089F48091BC
S11301206000882379F080916000815080936000A2
S1130130809160008BBB06C0DA01AF59BF4F1C929F
S1130140643018F2FF91EF91BF91AF919F918F911D
S11301507F916F915F914F913F912F910F900FBEBF
S11301600F901F90189588B3816F88BB000088B3E7
S11301708F7088BB0000B09B03C00E943E000895AE
S113018083B7887F856083BF81E08093650008958D
S113019081E08CBF83B7877B886083BF89B7826027
S11301A089BF089587B3806F87BBB8988FEF8ABBE8
S11301B01BBA0E94C8007894809165008111FCCF1D
S10D01C00E94B300F9CFF894FFCFBA
S9030000FC
