:100000000C942A000C943C000C943C000C943C0092
:100010000C943C000C943C000C943C000C943C0070
:100020000C943C000C943C000C9453000C943C0049
:100030000C943C000C943C000C943C000C943C0050
:100040000C943C000C943C000C943C000C943C0040
:100050000C943C0011241FBECFE5D8E0DEBFCDBF1D
:1000600020E0A0E6B0E001C01D92A337B207E1F79F
:100070000E9475010C9484010C9400008091620030
:1000800081110FC021E030E0F901EE59FF4F90815E
:10009000911108C02F5F3F4F20313105A9F781E052
:1000A000089580E008951F920F920FB60F921124C9
:1000B000EF92FF920F931F932F933F934F935F9372
:1000C0006F937F938F939F93AF93BF93CF93DF9360
:1000D000EF93FF93F89482B38F7082BB809161009D
:1000E000843030F00E943E0081111BBA10926100F2
:1000F00080B330916100282F2F7080E190E002C022
:10010000880F991F3A95E2F7822B82BB000040B31B
:100110001092720080917200843008F0BCC021E01F
:1001200030E050E0A1E060EF70E080917200E0917B
:100130007200790102C0EE0CFF1C8A95E2F7C7013C
:1001400084239523E90102C0CC0FDD1FEA95E2F775
:100150008C179D0709F088C0E091720080916100C2
:10016000F0E0D4E08D9FE00DF11D1124EE59FF4F1A
:100170008081811186C0E091720080916100F0E081
:1001800094E0899FE00DF11D1124EE59FF4FA083EB
:1001900080916100880F880FE0917200982F9E2B4C
:1001A00080916000823038F5F0916000C9B3892FEA
:1001B00090E0B0916000E0916000FF0FFF0F8B01B5
:1001C00002C015950795FA95E2F7EE0FEE0F7C0148
:1001D00002C0EE0CFF1CEA95E2F7F701E02BFB2FC3
:1001E000FF0FFF0F02C0880F991FFA95E2F78C2BC3
:1001F0008E238BBB33C000916000B6B3892F90E093
:10020000E0916000C091600010E002501109000F01
:10021000111F000F111F7B0102C0F594E7940A958E
:10022000E2F78701D0E02297CC0FDD1FCC0FDD1F56
:100230007C0102C0EE0CFF1CCA95E2F7E701C02B5F
:10024000F0E03297EE0FFF1FEE0FFF1F02C0880F86
:10025000991FEA95E2F78B2B8C2388BB8091600075
:100260008F5F809360000DC0E0917200809161000B
:10027000F0E094E0899FE00DF11D1124EE59FF4F4D
:100280001082809172008F5F809372008091720063
:10029000843008F44ACF809161008F5F80936100C1
:1002A000FF91EF91DF91CF91BF91AF919F918F918E
:1002B0007F916F915F914F913F912F911F910F917E
:1002C000FF90EF900F900FBE0F901F90189581E058
:1002D0008CBF83B7877B886083BF89B7826089BF03
:1002E00083B7887F856083BF089581B3806F81BBAA
:1002F00081B3807F81BB8FEF8ABB1BBA87BB18BAE3
:0C0300000E9467017894FFCFF894FFCFB3
:00000001FF
