:100000000C942A000C943C000C943C000C943C0092
:100010000C943C000C943C000C943C000C943C0070
:100020000C943C000C943C000C9471000C943C002B
:100030000C943C000C943C000C943C000C943C0050
:100040000C943C000C943C000C943C000C943C0040
:100050000C943C0011241FBECFE5D8E0DEBFCDBF1D
:1000600020E0A0E6B0E001C01D92A336B207E1F7A0
:100070000E944B000C94C8000C940000C89B03C065
:1000800010926200089583B7887F856083BF81E006
:100090008093610008958AB38E7F806F8ABB8BB393
:1000A000816F8BBB8FEF87BB789485E08CBF83B764
:1000B000877B886083BF89B7826089BF8091620037
:1000C00081110AC0809161008111F8CF0E943E0029
:1000D00080916200882391F3C89BF0CF1092620058
:1000E000EDCF1F920F920FB60F9211242F934F93C3
:1000F0005F936F937F938F939F93F89440E050E0CA
:1001000060E170E08BB3282F206FCB01042E02C07A
:10011000880F991F0A94E2F782278BBB0000C899C9
:100120001AC0411109C0809160008F5F8093600008
:100130008091600088BB14C0433069F480916000F6
:10014000882371F0809160008150809360008091DD
:10015000600088BB05C04F5F5F4F4430510591F68A
:1001600081E0809362008BB3806F8BBB83B7887F05
:1001700083BF1092610018959F918F917F916F912D
:100180005F914F912F910F900FBE0F901F90189578
:04019000F894FFCF11
:00000001FF
