:100000000C942A000C943C000C943C000C943C0092
:100010000C943C000C943C000C943C000C943C0070
:100020000C943C000C943C000C9461000C943C003B
:100030000C943C000C943C000C943C000C943C0050
:100040000C943C000C943C000C943C000C943C0040
:100050000C943C0011241FBECFE5D8E0DEBFCDBF1D
:1000600020E0A0E6B0E001C01D92A536B207E1F79E
:100070000E94C6000C94D1000C94000080E090E037
:10008000FC01EF59FF4F2081211106C001968430F9
:100090009105B1F781E0089580E00895E82FF0E040
:1000A000EF59FF4F81E080830895E82FF0E0EF598A
:1000B000FF4F10820895E82FF0E0EF59FF4F808145
:1000C00008951F920F920FB60F9211242F933F9312
:1000D0004F935F936F937F938F939F93AF93BF9350
:1000E000EF93FF93F89480916000843030F00E9489
:1000F0003E0081111BBA1092600080B33091600005
:10010000282F2F7080E190E001C0880F3A95EAF720
:10011000822B82BB000080B3E0916000F0E0EF59D9
:10012000FF4F80FF0EC0908191110CC0E0916000E4
:10013000F0E0EF59FF4F91E0908382958F708BBB79
:1001400001C01082809160008F5F80936000FF91FA
:10015000EF91BF91AF919F918F917F916F915F913F
:100160004F913F912F910F900FBE0F901F901895B8
:1001700084E18CBF83B7877B886083BF89B7826047
:1001800089BF83B7887F856083BF089581B3806FFF
:1001900081BB88988FEF8ABB1BBA0E94B800789405
:0601A000FFCFF894FFCF31
:00000001FF
