:100000000C942A000C943C000C943C000C943C0092
:100010000C943C000C943C000C943C000C943C0070
:100020000C943C000C943C000C9449000C943C0053
:100030000C943C000C943C000C943C000C943C0050
:100040000C943C000C943C000C943C000C943C0040
:100050000C943C0011241FBECFE5D8E0DEBFCDBF1D
:1000600020E0A0E6B0E001C01D92A237B207E1F7A0
:100070000E9470010C948C010C94000080E090E0D0
:10008000FC01EF59FF4F1082019680319105C1F7B5
:1000900008951F920F920FB60F9211244F925F9204
:1000A0007F928F929F92AF92BF92CF92DF92EF9208
:1000B000FF920F931F932F933F934F935F936F93F1
:1000C0007F938F939F93AF93BF93CF93DF93EF93E0
:1000D000FF9383B7887F83BF1092710060E070E068
:1000E000412C512C00E110E0C1E0D0E07724739462
:1000F0000F2EF0EFEF2EF12CF02D80B3282F206F74
:10010000C801042C02C0880F991F0A94E2F78227C5
:1001100082BB000040B3B42CBB0CBB0C80E090E071
:1001200050E0DE01082E02C0AA0FBB1F0A94E2F7BE
:100130006A01CA22DB22AC15BD0509F478C0DC01D6
:10014000A60FB71F9D012F593F4FF90120812111A3
:1001500074C070822B2D282B30916000323030F526
:10016000B091600099B230E0A0906000A091600072
:10017000BB0FBB0F670102C0D594C794BA95E2F7D5
:10018000AA0FAA0FF90102C0EE0FFF1FAA95E2F70E
:10019000DF01AC29BA2DBB0FBB0F02C0220F331FEA
:1001A000BA95E2F72929A223ABBB35C08090600045
:1001B000A6B230E0A0916000C0906000912CF2E007
:1001C0008F1A9108880C991C880C991CF70102C0A1
:1001D000F595E7958A94E2F74F01D12CF2E0CF1A1A
:1001E000D108CC0CDD1CCC0CDD1CF90102C0EE0FDB
:1001F000FF1FCA94E2F76F01C828B0E01297AA0F58
:10020000BB1FAA0FBB1F02C0220F331FAA95E2F724
:100210002A29C222C8BA209160002F5F2093600073
:10022000E3EDF0E33197F1F700C0000006C0DC0118
:10023000A60FB71FAF59BF4F1C920196843091058E
:1002400009F06FCFFFEF4F1A5F0A6C5F7F4F84E0BA
:100250004816510409F051CFFF91EF91DF91CF91F2
:10026000BF91AF919F918F917F916F915F914F91CE
:100270003F912F911F910F91FF90EF90DF90CF90C2
:10028000BF90AF909F908F907F905F904F900F9016
:100290000FBE0F901F90189582B3806F82BB000035
:1002A00082B38F7082BB000080B38F708F3019F4DF
:1002B0000E943E00089582B3806F82BB83B7887F1F
:1002C000846083BF81E080937100089584E18CBFD6
:1002D00083B7877B886083BF89B7826089BF0895B1
:1002E00080EF81BB82BB82B38F6082BB8FEF8ABB02
:1002F00087BB1BBA18BA0E946601789406C0809129
:100300007100811102C00E944C0180916000843014
:0C031000B0F380E090E00895F894FFCF77
:00000001FF
